10085100005555206PE080120220815EMP                                                                                              
20002CA0004384731000000000120000202208150                                                                                      
20002CA0004591782000000000120000202208150                                                                                      
20002CA0004378558000000000120000202208150                                                                                      
20059CA0590422581000000000120000202208150                                                                                      
20002CA0007061200000000000120000202208150                                                                                      
