10085100005555206PE080120220815EMP                                                                                              
20002CA01234567890000000000120000202208150                                                                                      
20002CA00004384731000000000120000202208150                                                                                      
20002CA00004591782000000000120000202208150                                                                                      
20002CA00004378558000000000120000202208150                                                                                      
20059CA06590422581000000000120000202208150                                                                                      
20002CA00007061200000000000120000202208150                                                                                      
3000000000720000000006000000000000000000000                                                                                     